{
  "contractName": "VendingMachine",
  "abi": [
    {
      "inputs": [
        {
          "internalType": "uint256",
          "name": "",
          "type": "uint256"
        }
      ],
      "name": "stores",
      "outputs": [
        {
          "internalType": "string",
          "name": "name",
          "type": "string"
        },
        {
          "internalType": "uint256",
          "name": "count",
          "type": "uint256"
        }
      ],
      "stateMutability": "view",
      "type": "function"
    },
    {
      "inputs": [],
      "name": "tokenID",
      "outputs": [
        {
          "internalType": "uint256",
          "name": "",
          "type": "uint256"
        }
      ],
      "stateMutability": "view",
      "type": "function"
    },
    {
      "inputs": [
        {
          "internalType": "string",
          "name": "_name",
          "type": "string"
        },
        {
          "internalType": "uint256",
          "name": "_count",
          "type": "uint256"
        }
      ],
      "name": "listItemForSale",
      "outputs": [],
      "stateMutability": "nonpayable",
      "type": "function"
    },
    {
      "inputs": [
        {
          "internalType": "uint256",
          "name": "_tokenID",
          "type": "uint256"
        }
      ],
      "name": "purchase",
      "outputs": [],
      "stateMutability": "nonpayable",
      "type": "function"
    }
  ],
  "bytecode": "0x608060405234801561001057600080fd5b5061070d806100206000396000f3fe608060405234801561001057600080fd5b506004361061004c5760003560e01c80633e3c2cd514610051578063a5c42ef11461006d578063e8a59cd81461008b578063efef39a1146100bc575b600080fd5b61006b60048036038101906100669190610354565b6100d8565b005b61007561013b565b6040516100829190610455565b60405180910390f35b6100a560048036038101906100a091906103b0565b610141565b6040516100b3929190610425565b60405180910390f35b6100d660048036038101906100d191906103b0565b6101ed565b005b6000808154809291906100ea906105c5565b9190505550816001600080548152602001908152602001600020600001908051906020019061011a92919061022c565b50806001600080548152602001908152602001600020600101819055505050565b60005481565b600160205280600052604060002060009150905080600001805461016490610562565b80601f016020809104026020016040519081016040528092919081815260200182805461019090610562565b80156101dd5780601f106101b2576101008083540402835291602001916101dd565b820191906000526020600020905b8154815290600101906020018083116101c057829003601f168201915b5050505050908060010154905082565b60018060008381526020019081526020016000206001015461020f91906104e2565b600160008381526020019081526020016000206001018190555050565b82805461023890610562565b90600052602060002090601f01602090048101928261025a57600085556102a1565b82601f1061027357805160ff19168380011785556102a1565b828001600101855582156102a1579182015b828111156102a0578251825591602001919060010190610285565b5b5090506102ae91906102b2565b5090565b5b808211156102cb5760008160009055506001016102b3565b5090565b60006102e26102dd84610495565b610470565b9050828152602081018484840111156102fe576102fd6106a0565b5b610309848285610520565b509392505050565b600082601f8301126103265761032561069b565b5b81356103368482602086016102cf565b91505092915050565b60008135905061034e816106c0565b92915050565b6000806040838503121561036b5761036a6106aa565b5b600083013567ffffffffffffffff811115610389576103886106a5565b5b61039585828601610311565b92505060206103a68582860161033f565b9150509250929050565b6000602082840312156103c6576103c56106aa565b5b60006103d48482850161033f565b91505092915050565b60006103e8826104c6565b6103f281856104d1565b935061040281856020860161052f565b61040b816106af565b840191505092915050565b61041f81610516565b82525050565b6000604082019050818103600083015261043f81856103dd565b905061044e6020830184610416565b9392505050565b600060208201905061046a6000830184610416565b92915050565b600061047a61048b565b90506104868282610594565b919050565b6000604051905090565b600067ffffffffffffffff8211156104b0576104af61066c565b5b6104b9826106af565b9050602081019050919050565b600081519050919050565b600082825260208201905092915050565b60006104ed82610516565b91506104f883610516565b92508282101561050b5761050a61060e565b5b828203905092915050565b6000819050919050565b82818337600083830152505050565b60005b8381101561054d578082015181840152602081019050610532565b8381111561055c576000848401525b50505050565b6000600282049050600182168061057a57607f821691505b6020821081141561058e5761058d61063d565b5b50919050565b61059d826106af565b810181811067ffffffffffffffff821117156105bc576105bb61066c565b5b80604052505050565b60006105d082610516565b91507fffffffffffffffffffffffffffffffffffffffffffffffffffffffffffffffff8214156106035761060261060e565b5b600182019050919050565b7f4e487b7100000000000000000000000000000000000000000000000000000000600052601160045260246000fd5b7f4e487b7100000000000000000000000000000000000000000000000000000000600052602260045260246000fd5b7f4e487b7100000000000000000000000000000000000000000000000000000000600052604160045260246000fd5b600080fd5b600080fd5b600080fd5b600080fd5b6000601f19601f8301169050919050565b6106c981610516565b81146106d457600080fd5b5056fea2646970667358221220705505c69224171affaad47fe9afccf63976d220c20f385ba1e20a29f87b85d564736f6c63430008070033",
  "immutableReferences": {},
  "source": "// SPDX-License-Identifier: MIT\npragma solidity 0.8.7;\n\n// v0.1 - 進行帳面上的買賣(無token)\ncontract VendingMachine {\n  struct Token {\n    string name; // token名\n    uint256 count; // 架上剩餘數量\n  }\n\n  uint256 public tokenID;\n  mapping(uint256 => Token) public stores;\n\n  function listItemForSale(string memory _name, uint256 _count) public {\n    tokenID++;\n    stores[tokenID].name = _name;\n    stores[tokenID].count = _count;\n  }\n\n  function purchase(uint256 _tokenID) public {\n    stores[_tokenID].count = stores[_tokenID].count - 1;\n  }\n}\n",
  "sourcePath": "/Users/bob/src/vending-machine-dapp/src/contracts/VendingMachine.sol",
  "compiler": {
    "name": "solc",
    "version": "0.8.7+commit.e28d00a7.Emscripten.clang"
  },
  "schemaVersion": "3.2.3",
  "updatedAt": "2022-01-26T14:35:39.048Z",
  "devdoc": {
    "kind": "dev",
    "methods": {},
    "version": 1
  },
  "userdoc": {
    "kind": "user",
    "methods": {},
    "version": 1
  }
}